:020000040800F2
:10000000580400209D010008FB0E00082B0E00087C
:10001000F90E0008A90200083B11000800000000CA
:10002000000000000000000000000000FF0E0008BB
:10003000AB02000800000000FD0E0008010F0008E0
:10004000B7010008B7010008B7010008B7010008B0
:10005000B7010008B7010008AD020008B7010008A9
:10006000B7010008B7010008B7010008B701000890
:10007000B7010008B7010008B7010008B701000880
:10008000B7010008B7010008B7010008B701000870
:10009000B7010008B7010008B7010008B701000860
:1000A000B7010008B7010008B7010008B701000850
:1000B000DD0F0008B7010008B7010008B70100080C
:1000C000B7010008B7010008B7010008B701000830
:1000D000B7010008B7010008B7010008B701000820
:1000E000B7010008B7010008B7010008B701000810
:1000F000B7010008B7010008B7010008B701000800
:10010000B7010008B7010008B7010008B7010008EF
:10011000B7010008B7010008B7010008B7010008DF
:10012000B7010008B7010008B7010008B7010008CF
:10013000B7010008B7010008B7010008B7010008BF
:10014000B7010008B7010008B7010008B7010008AF
:10015000B7010008B7010008B7010008B70100089F
:10016000B7010008B7010008B7010008B70100088F
:10017000B7010008B7010008B7010008000000003F
:10018000B7010008B7010008DFF80CD000F07AF8DA
:10019000004800477D1100085804002006488047A9
:1001A00006480047FEE7FEE7FEE7FEE7FEE7FEE75C
:1001B000FEE7FEE7FEE7FEE7890F00088901000879
:1001C0002DE9F05F0546002092469B46884606468C
:1001D000814640241BE0284641464746224600F01F
:1001E00041F853465A46C01A914110D31146184659
:1001F000224600F028F82D1A67EB01084F462246E8
:100200000120002100F01FF817EB00094E41201ECD
:10021000A4F10104DFDC484631462A464346BDE8E6
:10022000F09FD2B201E000F8012B491EFBD27047CB
:100230000022F6E710B513460A4604461946FFF7B2
:10024000F0FF204610BD202A04DB203A00FA02F11C
:10025000002070479140C2F1200320FA03F31943B4
:1002600090407047202A04DB203A21FA02F0002156
:10027000704721FA02F3D040C2F1200291400843B6
:1002800019467047064C074D06E0E06840F0010350
:1002900094E8070098471034AC42F6D3FFF778FF94
:1002A000C8110008E8110008FEE7704710B50120EA
:1002B00000F020F801210B4800F000F90A4C00285A
:1002C000206801D0401C2060012806D004DD0748CA
:1002D00000F073FC0020206010BDBDE81040034812
:1002E00000F05ABC0000024004000020180000206A
:1002F00070470000044910B50A68024202D0086045
:10030000FFF7F6FF10BD0000143C01402DE9F84F47
:10031000DFF87CB100224FF001084FF0030A4FF0E4
:100320000F090BF1040E00BF0B6808FA02F423401A
:10033000A3426ED14D68022D01D0122D0ED1D508E9
:1003400000EB850CDCF820505607F70E09FA07F68B
:10035000B5430E69BE402E43CCF8206006685500B8
:100360000F790AFA05FC07F0030726EA0C06AF40EE
:10037000374307604E68012E05D0022E03D0112EA0
:1003800001D0122E0ED18668CF6826EA0C06AF4047
:10039000374387604668A6430C79C4F30014944041
:1003A00034434460C6688C6826EA0C06AC4034438B
:1003B000C4604C68E40065D5364C256845F480453A
:1003C0002560246822F0030504F480440094324C34
:1003D0002E19D6F8084895072F0F09FA07F5AC43F0
:1003E0002E4DA84201D1002524E02D4DA84201D177
:1003F00001251FE02B4DA84201D102251AE02A4D0C
:10040000A84201D1032515E0284DA84202D10425B8
:1004100010E037E0264DA84201D105250AE0254D20
:10042000A84201D1062505E0234DA84201D10725A8
:1004300000E00825BD402543C6F80858DBF8004019
:100440005D464E689C43F60300D51C432C60DEF8E5
:10045000004075464E689C43B60300D51C432C6093
:100460000B4D08352C684E689C43F60200D51C43A2
:100470002C60074D0C352C684E689C43B60200D5A5
:100480001C432C60521C102AFFF44EAFBDE8F88FBD
:10049000003C01404438024000300140000002406E
:1004A0000004024000080240000C0240001002401C
:1004B0000014024000180240001C0240006908407D
:1004C00000D001207047426931EA020200D10904DC
:1004D000816170470AB1816170470904FBE7000040
:1004E00001488068704700000800002002488168C9
:1004F0000278114481607047080000200B4810B555
:10050000016841F400710160016841F4806101609B
:10051000016841F480710160032000F071F800204F
:1005200000F006F800F024F8002010BD003C024066
:1005300070B50D4D04464FF47A712878B1FBF0F098
:100540000A490968B1FBF0F000F0C2FA48B9102C72
:1005500007D200222146501E00F032F800206C60C5
:1005600070BD012070BD00000800002014000020B4
:100570000B4882B0016841F480410160006800F4DA
:10058000804000900648001F016841F080510160E2
:10059000006800F080500090072002B000F030B8F2
:1005A00044380240002809DB00F01F02012191407D
:1005B0004009800000F1E020C0F800117047000001
:1005C000F0B40E4B1B680C46C3F30223C3F10705BE
:1005D000042D00D90425191D072901D2002300E0AC
:1005E000DB1E012606FA05F1491E214099409E4076
:1005F000761E16403143F0BC00F0A0BD0CED00E0CB
:10060000064900F0070208684FF6FF03184040EA69
:100610000220034A10430860704700000CED00E020
:100620000000FA052DE9F0470E46050065D0DFF819
:100630001481D8F80000F7B200F00F00B04207D2E2
:1006400088F80070D8F8000000F00F00B04254D1D4
:1006500028683D4C810712D5400703D5206840F437
:10066000E05020602878000703D5206840F46040FF
:1006700020602068A96820F0F000084320602878F6
:10068000C0072DD0304968680839012812D00228E7
:1006900013D0032811D00968890700292DDA2168B1
:1006A00021F0030101432160FFF71AFF814641F267
:1006B000883A0EE009688903EFE709688901ECE7E9
:1006C000FFF70EFFA0EB0901514502D90320BDE859
:1006D000F0872068696800F00C00B0EB810FEFD163
:1006E000D8F80010404601F00F01B14207D9077059
:1006F000006800F00F00B04201D00120E7E7287841
:10070000400705D52068E96820F4E05008432060E0
:100710002878000706D52068296920F4604040EA5F
:10072000C100206000F016F82168084AC1F30311E7
:10073000515CC840064908600020FFF7F9FE002020
:10074000C5E70000003C024008380240B81100082C
:1007500014000020154810B5006810F00C02144871
:1007600013D04110042A0FD0082A0ED10F4C241F99
:100770002268236802F03F025B0207D52068C0F3BD
:100780008810A0FB010106E0084610BD2168C1F3F6
:100790008811A1FB00010023FFF712FD2168C1F3BE
:1007A0000141491C4900B0FBF1F010BD083802407E
:1007B0000024F4002DE9F84F050076D02878DFF802
:1007C000F8B2BE4CC00749D0DBF800105846C1F360
:1007D0008101012908D00068C0F3810002280AD1F4
:1007E000201D0068400206D52068800336D5686861
:1007F0000028E2D032E06868B0F5803F10D0B0F554
:10080000A02F206810D020F480302060206820F4D1
:10081000802020606868A0B1FFF762FE06460CE009
:10082000206840F48030F4E740F480202060F7E74F
:10083000FFF756FE801B642873D820688003F7D525
:100840000CE0FFF74DFE064605E000BFFFF748FE4F
:10085000801B6428F0D820688003F7D42878DFF85C
:10086000608280074FF000093ED5DBF80010584643
:1008700011F00C0F09D00068C0F3810002280BD1E1
:100880008D48001F0068400206D42068800715D5F7
:10089000E868012809D111E0E868B8B10120C8F87A
:1008A0000000FFF71DFE064605E002E1FFF718FE17
:1008B000801B0228C0D820688007F7D520682969E6
:1008C00020F0F80040EAC10020600DE0C8F8009078
:1008D000FFF706FE064604E0FFF702FE801B022833
:1008E0001FD820688007F7D42878000722D5724ED9
:1008F000744869696C3671B101210160FFF7F0FD40
:10090000074604E0FFF7ECFDC01B022809D8306859
:100910008007F7D50EE0C0F80090FFF7E1FD07462D
:1009200005E083E0FFF7DCFDC01B02287ED83068BD
:100930008007F7D42878400768D5DFF87CA1002726
:100940000AF1380ADAF80000C0000BD4DAF8001017
:1009500041F08051CAF80010DAF80000012700F0D9
:1009600080500090584E3068C00510D4306840F474
:1009700080703060FFF7B4FD009005E0FFF7B0FD38
:100980000099401A022851D83068C005F6D54A4E61
:10099000A868683601280FD00528306810D020F0EC
:1009A00001003060306820F004003060A868B8B101
:1009B000FFF796FD00900FE0306840F00100F4E78B
:1009C00040F004003060F7E7FFF78AFD0099411A14
:1009D00041F28830814264D830688007F4D50EE057
:1009E000FFF77EFD009007E0FFF77AFD0099411ABE
:1009F00041F28830814254D830688007F4D42FB156
:100A0000DAF8001021F08051CAF80010A869C0B3CC
:100A1000DBF80010C1F3810102294AD002284846C0
:100A200007D0C8F86000FFF75BFD00E039E005463D
:100A30003AE04746C8F86000FFF752FD064604E07A
:100A4000FFF74EFD801B02282BD820688001F7D4C9
:100A5000D5E907010843A96A1C4A490802EB01418C
:100A60006A6A41EA8211084395F82C1040EA016154
:100A70001148001F016001203866FFF731FD05466F
:100A800005E014E0FFF72CFD401B022809D8206880
:100A90008001F7D50BE000BFFFF722FD401B0228C5
:100AA00002D90320BDE8F88F20688001F4D400202B
:100AB000F8E70120F6E7000008380240003802405D
:100AC00000004742800E4742007000400000FFFFD8
:100AD00010B5401EB0F1807F01D3012010BD4FF052
:100AE000E02460610F21601700F028FB0020A06166
:100AF00007202061002010BD7047704770B590F846
:100B00003C20012A19D0012400F83C4F02224270F7
:100B100050F83C3C5A689D6822F070060A684968A3
:100B2000324325F0800529435A6050F83C2C9160EF
:100B3000447000210170084670BD022070BD10B5E0
:100B4000040003D094F83D0010B107E0012010BD6F
:100B5000002084F83C00204600F00CF8022084F8C5
:100B60003D00211D206800F04FFA012084F83D006F
:100B7000002010BD08B50068B0F1804F08D10548CD
:100B8000016841F001010160006800F0010000907F
:100B900008BD0000403802400168CA6842F0010206
:100BA000CA600068816801F00701062903D0016866
:100BB00041F001010160002070470168CA6822F01D
:100BC0000102CA600068016A41F21112114207D1A4
:100BD000016A9210114203D1016821F00101016004
:100BE0000020704770B5044690F83C00012817D0EB
:100BF000012584F83C50022084F83D00206882687A
:100C000022F0770222F47F4282600868502830D0B8
:100C10000DDC20284DD005DC98B310283BD148E0EE
:100C2000022070BD302844D0402834D139E06028FB
:100C300028D0702806D0B0F5805F2CD0B0F5005FCA
:100C400029D10AE0CB68D1E90121206800F040FAFF
:100C50002068816841F0770109E0CB68D1E9012182
:100C6000206800F035FA2068816841F48041816095
:100C700011E0CA684968206800F03CFA50212068F9
:100C800007E016E0CA684968206800F044FA60216D
:100C9000206800F027FA84F83D50002084F83C00DA
:100CA00070BDCA684968206800F024FA40212068B5
:100CB000EFE7226801461046EBE7704770B504463F
:100CC000006801694FF00005C943890715D4C16860
:100CD000C943890711D4E91E0161012020772068EA
:100CE00080698007204602D0FFF7E7FF04E000F0AC
:100CF00098F8204600F096F8257720680169C943E6
:100D0000490717D4C168C943490713D46FF00401D8
:100D10000161022020772068806910F4407F20461E
:100D200002D0FFF7CAFF04E000F07BF8204600F095
:100D300079F8257720680169C943090716D4C16885
:100D4000C943090712D46FF008010161042020771C
:100D50002068C0698007204602D0FFF7AEFF04E09C
:100D600000F05FF8204600F05DF825772068016903
:100D7000C943C90617D4C168C943C90613D46FF063
:100D800010010161082020772068C06910F4407FBD
:100D9000204602D0FFF791FF04E000F042F8204621
:100DA00000F040F8257720680169C943C90708D1D8
:100DB000C168C943C90704D1891E0161204600F0FA
:100DC00032F820680169C943090609D4C168C943DA
:100DD000090605D46FF0800101612046FFF78CFE03
:100DE00020680169C943490609D4C168C943490655
:100DF00005D46FF040010161204600F015F820682D
:100E00000169C94389060BD4C168C943890607D45F
:100E10006FF0200101612046BDE87040FFF76DBE14
:100E200070BD7047704770477047FEE7F0B587B0F8
:100E300014216846FFF7FCF916480024016841F0C8
:100E400001010160016801F001010591016841F0B3
:100E5000080101600068104F00F008004FF4704670
:100E60000590224631463846FFF734FB01250B48F2
:100E70000095CDE9010469460948FFF747FA009655
:100E8000CDE90154694638460394FFF73FFA07B0AD
:100E9000F0BD000030380240000C0240000011108C
:100EA0000000024010B586B000241248009401945E
:100EB0000294039404944FF080410594016048F635
:100EC0009F41C0E901144FF47A61C0E903148461C1
:100ED000FFF735FE4FF48050009069460548FFF754
:100EE00081FE049404A903480594FFF707FE06B0A9
:100EF00010BD000018000020FEE7704770477047E3
:100F0000FFF7F4BA30B593B030216846FFF790F997
:100F100014210CA8FFF78CF919480025016841F04D
:100F200080510160006800F0805011901548016800
:100F300041F4804101600068022400F48040119077
:100F40000120039010200490009406940820CDE91D
:100F500007504820CDE9090407200B906846FFF7A9
:100F600029FC0CA90F2081E83100E0020F904FF41A
:100F7000A050109002210CA8FFF754FB13B030BD15
:100F800040380240007000401048016841F4700190
:100F900001600F48016841F0010101600C4A002125
:100FA0000832116002680B4B1A400260031D0A4AA6
:100FB0001A60026822F48022026005480C30016049
:100FC00002495806803908607047000088ED00E04B
:100FD00000380240FFFFF6FE1030002410B507482D
:100FE000FFF76CFE06480168491C0160BDE810402F
:100FF0004FF480510348FFF766BA00001800002044
:1010000000000020000C0240F0B50268254C264D7F
:10101000264E274F274B4FF0804CA04209D0604509
:1010200007D0A84205D0B04203D0B84201D09842C0
:1010300004D122F0700E4A6842EA0E02A0421BD090
:10104000604519D0A84217D0B04215D0B84213D08D
:10105000984211D0184DA8420ED0184DA8420BD07E
:10106000174DA84208D0174DA84205D0164DA842EA
:1010700002D0164DA84203D122F44075CA682A4313
:101080004D6922F080022A4302608A68C2620A68BF
:101090008262A04201D0984201D109690163012115
:1010A0004161F0BD00000140000400400008004024
:1010B000000C004000040140004001400044014099
:1010C0000048014000180040001C00400020004083
:1010D00010B5846842EA032224F47F440A43224381
:1010E000826010BD826822F070020A4342F007015C
:1010F0008160704710B5036A046A24F00104046239
:10110000846924F0F00444EA021423F00A020A433A
:101110008461026210BD10B5036A23F010030362FC
:101120008369046A23F4704343EA023224F0A00383
:1011300043EA01118261016210BDFEE70907090E51
:10114000002804DB00F1E02080F80014704700F074
:101150000F0000F1E02080F8141D704702E008C87D
:10116000121F08C1002AFAD170477047002001E021
:1011700001C1121F002AFBD1704700000D49002059
:101180000860FFF7BBF9FFF7BDFEFFF74FFEFFF763
:1011900089FE002211460620FFF712FA0620FFF70B
:1011A00001FA002211461C20FFF70AFA1C20FFF763
:1011B000F9F9FEE700000020000000000000000038
:1011C0000102030406070809E811000800000020D6
:1011D000180000005C110008001200081800002030
:1011E000400400006C110008000000000000000036
:1011F0000100000010000000000000000024F400C6
:040000050800018965
:00000001FF
