S010000049676E6173334C642E737265633F
S11300000C942A000C943C000C943C000C943C008E
S11300100C943C000C943C000C943C000C943C006C
S11300200C943C000C943C000C943C000C943C005C
S11300300C943C000C943C000C943C000C943C004C
S11300400C943C000C943C000C943C000C943C003C
S11300500C943C0011241FBECFE5D4E0DEBFCDBF1D
S113006020E0A0E6B0E001C01D92A036B207E1F79F
S11300700E9443000C945A000C94000083B78966D4
S113008083BFBB9A08950E943E0080E08CBFEFE3DB
S1130090FCE93197F1F700C000008F5F8F3FB1F7A3
S11300A08CBFEFE9FFE03197F1F700C00000815009
S10B00B0B9F7EBCFF894FFCF80
S9030000FC
