:020000040800F2
:10000000C00D00209D010008A5010008A7010008FF
:10001000A9010008AB010008AD01000800000000C4
:10002000000000000000000000000000AF01000818
:10003000B101000800000000B3010008991E00088B
:10004000B7010008B7010008B7010008B7010008B0
:10005000B7010008B7010008CD030008B701000888
:10006000B7010008B7010008B7010008B701000890
:10007000B7010008B7010008B7010008B701000880
:10008000B7010008B7010008B7010008B701000870
:10009000B7010008B7010008B7010008B701000860
:1000A000B7010008B7010008B7010008B701000850
:1000B000991F0008B91F0008B7010008B701000820
:1000C000B7010008B7010008B7010008B701000830
:1000D000B7010008B7010008B7010008B701000820
:1000E000B7010008B7010008B7010008B701000810
:1000F000B7010008B7010008B7010008B701000800
:10010000B7010008B7010008B7010008B7010008EF
:10011000B7010008B7010008B7010008B7010008DF
:10012000B7010008B7010008B7010008B7010008CF
:10013000B7010008B7010008B7010008B7010008BF
:10014000B7010008B7010008B70100088D1E0008BC
:10015000B7010008B7010008B7010008B70100089F
:10016000B7010008B7010008B7010008B70100088F
:10017000B7010008B7010008B7010008000000003F
:10018000B7010008B7010008DFF80CD000F07AF8DA
:100190000048004769360008C00D00200648804727
:1001A00006480047FEE7FEE7FEE7FEE7FEE7FEE75C
:1001B000FEE7FEE7FEE7FEE7451F000889010008AD
:1001C0002DE9F05F0546002092469B46884606468C
:1001D000814640241BE0284641464746224600F01F
:1001E00041F853465A46C01A914110D31146184659
:1001F000224600F028F82D1A67EB01084F462246E8
:100200000120002100F01FF817EB00094E41201ECD
:10021000A4F10104DFDC484631462A464346BDE8E6
:10022000F09F40EA01039B0703D009E008C9121FB1
:1002300008C0042AFAD203E011F8013B00F8013BA0
:10024000521EF9D27047202A04DB203A00FA02F14C
:10025000002070479140C2F1200320FA03F31943B4
:1002600090407047202A04DB203A21FA02F0002156
:10027000704721FA02F3D040C2F1200291400843B6
:1002800019467047064C074D06E0E06840F0010350
:1002900094E8070098471034AC42F6D3FFF778FF94
:1002A0004C3700086C37000870B50546D0F8740369
:1002B000C46994F84E0003281BD0042818D1217B70
:1002C000284602F083FB012812D1217B284602F048
:1002D00068FBA16A80B2814213D0628B824210D245
:1002E000091AA162216A08442062032084F84E00A2
:1002F00070BD237B628B2846216A01F01CFF04201D
:10030000F4E7002084F84E00284602F070F870BD33
:10031000F8B50646D0F874030125C46994F84D0079
:1003200001280AD0022807D1617B304602F04EFB3B
:10033000012811D002281AD0F8BD228B606A0095DE
:10034000637B904200D882B23046E16901F003FF3E
:10035000022084F84D00F8BD208B626A00218242A1
:1003600008D9121A6262E3691844E06103D084F884
:100370004D50F8BD616284F84D10304602F03AF8F5
:10038000F8BD000010B500224FEA020100EB820325
:10039000521CC3F87C130F2AF8D300224FF40073C9
:1003A0008418521C84F81C119A42F9D301704170D0
:1003B00001228270C0F8B81302764023837141761F
:1003C00080F81C1380F81D23002010BD10B50120FB
:1003D00000F038F800204FF6FF71401C8842FCDB2B
:1003E0000121064800F012F9002806D0BDE81040AF
:1003F0004FF40041024800F00EB910BD0000024069
:10040000000C0240A1220274212242740022428286
:1004100082820722C28202F011B8000070B5044641
:1004200000F002F90546601C02D00448007804443C
:1004300000F0FAF8401BA042FAD370BD040000207F
:1004400070470000044910B50A68024202D00860F3
:10045000FFF7F6FF10BD0000143C01402DE9F84FF6
:10046000DFF87CB100224FF001084FF0030A4FF093
:100470000F090BF1040E00BF0B6808FA02F42340C9
:10048000A3426ED14D68022D01D0122D0ED1D50898
:1004900000EB850CDCF820505607F70E09FA07F63A
:1004A000B5430E69BE402E43CCF820600668550067
:1004B0000F790AFA05FC07F0030726EA0C06AF409D
:1004C000374307604E68012E05D0022E03D0112E4F
:1004D00001D0122E0ED18668CF6826EA0C06AF40F6
:1004E000374387604668A6430C79C4F300149440F0
:1004F00034434460C6688C6826EA0C06AC4034433A
:10050000C4604C68E40065D5364C256845F48045E8
:100510002560246822F0030504F480440094324CE2
:100520002E19D6F8084895072F0F09FA07F5AC439E
:100530002E4DA84201D1002524E02D4DA84201D125
:1005400001251FE02B4DA84201D102251AE02A4DBA
:10055000A84201D1032515E0284DA84202D1042567
:1005600010E037E0264DA84201D105250AE0254DCF
:10057000A84201D1062505E0234DA84201D1072557
:1005800000E00825BD402543C6F80858DBF80040C8
:100590005D464E689C43F60300D51C432C60DEF894
:1005A000004075464E689C43B60300D51C432C6042
:1005B0000B4D08352C684E689C43F60200D51C4351
:1005C0002C60074D0C352C684E689C43B60200D554
:1005D0001C432C60521C102AFFF44EAFBDE8F88F6C
:1005E000003C01404438024000300140000002401D
:1005F0000004024000080240000C024000100240CB
:100600000014024000180240001C0240006908402B
:1006100000D00120704742694A40426170470AB1E8
:10062000816170470904FBE701488068704700005A
:1006300004000020D0F8940202F076B9D0F89402B9
:1006400002F086B9006802F0B1BC006802F0B2BCEA
:1006500001EB810100EBC10090F85C00704701EBF9
:10066000810100EBC100C06C704710B5044690F8E2
:100670009002012809D0012084F89002206802F03D
:10068000A4FC002084F8900210BD022010BDFEB52D
:100690000546DDE9096095F89042089F012C1ED0BF
:1006A000012485F8904201EB810405EBC40402F0BB
:1006B0007F0C04F8383F20816170E67184F802C035
:1006C0004FEAD21C84F803C027710097CDE901607E
:1006D000286802F01FFD002185F89012FEBD02205F
:1006E000FEBD70472DE9F00301EB8104DDE90689C9
:1006F000DDE908C700EBC404022684F83B2084F837
:100700003F30B8F1000F0AD084F84260002553B1A1
:10071000012B3FD0022B1DD0032B2AD120E0032533
:1007200084F84250F2E7B8F1010F22D10ABBBCF1C4
:10073000000F10D1012284F8512002E084F84250C9
:1007400001E084F8426094F85C20022A11D084F819
:100750003D700EE02AB994F85120002AF1D1EDE75E
:1007600012B194F8502001E094F8512092B184F82D
:100770004260C4E9119C84F85C50E56484F8391047
:1007800084F85D50027C04F138010068BDE8F00394
:1007900002F03CBD84F84250EBE700002DE9F04147
:1007A000044600680025064602F00BFC01287DD1B6
:1007B000206802F074FE002878D0206802F06FFEF6
:1007C000800203D521684FF400104861206802F0D0
:1007D00066FEC00203D521684FF48010486120688E
:1007E00002F05DFE400103D521684FF08060486152
:1007F000206802F054FE800702D52168022048617B
:10080000206802F04CFE800010D5D6F8400420F09D
:100810002E00C6F840042046FFF710FF0121206893
:1008200002F022FE21684FF000504861206802F07B
:1008300036FEC00102D5204601F005F9206802F01D
:100840002EFE000705D5204600F0ABF821680820F1
:100850004861206802F023FE800120D5206802F064
:10086000CEFC07464FF0010812E000BF08FA05F081
:1008700038420CD006EB4510D0F80005E9B2000470
:10088000204602D500F0BBFE01E000F0D1FF6D1C58
:10089000A068A842EAD821684FF00070486120683B
:1008A00002F0FDFDC0060ED5206800E00BE0816976
:1008B00021F010018161204601F01CF92068816956
:1008C00041F010018161BDE8F08130B58BB00400CA
:1008D00026D0032084F89102204600F023F82068F7
:1008E00002F000FB04F1100128220D466846FFF7D4
:1008F00098FC94E80F0002F0A3FA0121206802F0AE
:10090000F8FD282229466846FFF78BFC94E80F0083
:1009100002F040FD012084F8910200200BB030BDB0
:100920000120FBE730B5006887B0B0F1A04F2ED1B1
:1009300000244FF40070CDE90004164D69462846A6
:100940000294FFF78BFD4FF4E05000900220CDE9B8
:1009500001040A20CDE9034069462846FFF77EFDE1
:100960000D48016841F0800101600B4810300168BA
:1009700041F4804101600068002200F4804005904D
:100980001146432000F074F9432000F065F907B0E8
:1009900030BD00000000024034380240006802F020
:1009A00092BDD0F8940202F015B810B5044690F844
:1009B000900201280DD0012084F89002206802F0F6
:1009C000CDFA0121206802F0B3FA002084F89002E9
:1009D00010BD022010BD10B5044690F89002012809
:1009E00009D0012084F89002206802F098FD0020D0
:1009F00084F8900210BD022010BD000070B5040004
:100A000004D094F83D00002510B106E0012070BD2F
:100A100084F83C50204600F075F8242084F83D000E
:100A20002068016821F00101016000F0F1F933490B
:100A30002268B0FBF1F15160314A6368934206D9F4
:100A40004FF4967359434FF47A73B1FBF3F1236873
:100A5000491C1962616891420BD84900B0FBF1F260
:100A6000C2F30B02042A01D2042019E0B0FBF1F01A
:100A700016E0A3689BB301EBC10202EB0112B0FBCD
:100A8000F2F242F48042120530D04BB301EBC102C6
:100A900002EB0111B0FBF1F040F4804040F4004063
:100AA0002168C861D4E90701084321680860D4E9D6
:100AB0000310084321688860D4E9050108432168D0
:100AC000C8602068016841F00101016025642020B0
:100AD00084F83D00256384F83E50002070BD00E09E
:100AE00006E001EB4102B0FBF2F2CCE70120D7E7D0
:100AF00001EB4101B0FBF1F0D0E7000040420F00F4
:100B0000A086010000B500680E4987B0884217D161
:100B10004FF41070009012200190012002900020EC
:100B200003900420049069460748FFF797FC0748A4
:100B3000016841F400110160006800F400100590A4
:100B400007B000BD0054004000040240403802409D
:100B500002488168027811448160704704000020D7
:100B60000B4810B5016841F400710160016841F45F
:100B700080610160016841F480710160032000F030
:100B800097F8002000F006F800F024F8002010BDCF
:100B9000003C024070B50D4D04464FF47A71287840
:100BA000B1FBF0F00A490968B1FBF0F000F06FFB0F
:100BB00048B9102C07D200222146501E00F058F8E8
:100BC00000206C6070BD012070BD0000040000209A
:100BD000100000201F4808B5016841F48041016001
:100BE000006800F4804000901A48001F016841F03E
:100BF00080510160006800F080500090072000F0F4
:100C000057F8002211466FF00B0000F031F8002277
:100C100011466FF00A0000F02BF8002211466FF029
:100C2000090000F025F800221146501F00F020F8BE
:100C300000221146101F00F01BF800221146901EE2
:100C400000F016F80022BDE808401146501E00F0E2
:100C50000FB800004438024000F01F02012191400B
:100C60004009800000F1E020C0F80011704700004A
:100C7000F0B40E4B1B680C46C3F30223C3F1070507
:100C8000042D00D90425191D072901D2002300E0F5
:100C9000DB1E012606FA05F1491E214099409E40BF
:100CA000761E16403143F0BC01F0E0B80CED00E0D8
:100CB000064900F0070208684FF6FF03184040EAB3
:100CC0000220034A10430860704700000CED00E06A
:100CD0000000FA052DE9F0470E46050065D0DFF863
:100CE0001481D8F80000F7B200F00F00B04207D22C
:100CF00088F80070D8F8000000F00F00B04254D11E
:100D000028683D4C810712D5400703D5206840F480
:100D1000E05020602878000703D5206840F4604048
:100D200020602068A96820F0F0000843206028783F
:100D3000C0072DD0304968680839012812D0022830
:100D400013D0032811D00968890700292DDA2168FA
:100D500021F0030101432160FFF766FC814641F267
:100D6000883A0EE009688903EFE709688901ECE732
:100D7000FFF75AFCA0EB0901514502D90320BDE859
:100D8000F0872068696800F00C00B0EB810FEFD1AC
:100D9000D8F80010404601F00F01B14207D90770A2
:100DA000006800F00F00B04201D00120E7E728788A
:100DB000400705D52068E96820F4E050084320602A
:100DC0002878000706D52068296920F4604040EAA9
:100DD000C100206000F02CF82168084AC1F303111B
:100DE000515CC840064908600020FFF7D3FE002090
:100DF000C5E70000003C02400838024030370008D8
:100E0000100000200148006870470000100000201A
:100E10000448054900680968044AC1F38221515C0D
:100E2000C8407047100000200838024040370008D2
:100E3000154810B5006810F00C02144813D041108A
:100E4000042A0FD0082A0ED10F4C241F22682368D1
:100E500002F03F025B0207D52068C0F38810A0FBB8
:100E6000010106E0084610BD2168C1F38811A1FB0D
:100E700000010023FFF7A4F92168C1F30141491CD7
:100E80004900B0FBF1F010BD083802400024F40026
:100E90002DE9F84F050076D02878DFF8F8B2BE4C7F
:100EA000C00749D0DBF800105846C1F38101012981
:100EB00008D00068C0F3810002280AD1201D006814
:100EC000400206D52068800336D568680028E2D045
:100ED00032E06868B0F5803F10D0B0F5A02F2068F0
:100EE00010D020F480302060206820F48020206022
:100EF0006868A0B1FFF798FB06460CE0206840F454
:100F00008030F4E740F480202060F7E7FFF78CFBA7
:100F1000801B642873D820688003F7D50CE0FFF7A6
:100F200083FB064605E000BFFFF77EFB801B6428BD
:100F3000F0D820688003F7D42878DFF86082800733
:100F40004FF000093ED5DBF80010584611F00C0FA9
:100F500009D00068C0F3810002280BD18D48001F22
:100F60000068400206D42068800715D5E86801288B
:100F700009D111E0E868B8B10120C8F80000FFF716
:100F800053FB064605E002E1FFF74EFB801B0228FB
:100F9000C0D820688007F7D52068296920F0F800BC
:100FA00040EAC10020600DE0C8F80090FFF73CFB6C
:100FB000064604E0FFF738FB801B02281FD8206894
:100FC0008007F7D42878000722D5724E74486969E3
:100FD0006C3671B101210160FFF726FB074604E082
:100FE000FFF722FBC01B022809D830688007F7D51D
:100FF0000EE0C0F80090FFF717FB074605E083E01E
:10100000FFF712FBC01B02287ED830688007F7D498
:101010002878400768D5DFF87CA100270AF1380A54
:10102000DAF80000C0000BD4DAF8001041F080516B
:10103000CAF80010DAF80000012700F08050009094
:10104000584E3068C00510D4306840F4807030606D
:10105000FFF7EAFA009005E0FFF7E6FA0099401A78
:10106000022851D83068C005F6D54A4EA8686836BF
:1010700001280FD00528306810D020F00100306022
:10108000306820F004003060A868B8B1FFF7CCFAEF
:1010900000900FE0306840F00100F4E740F00400F9
:1010A0003060F7E7FFF7C0FA0099411A41F2883043
:1010B000814264D830688007F4D50EE0FFF7B4FAB7
:1010C000009007E0FFF7B0FA0099411A41F288302A
:1010D000814254D830688007F4D42FB1DAF8001078
:1010E00021F08051CAF80010A869C0B3DBF80010E5
:1010F000C1F3810102294AD00228484607D0C8F826
:101100006000FFF791FA00E039E005463AE0474613
:10111000C8F86000FFF788FA064604E0FFF784FA93
:10112000801B02282BD820688001F7D4D5E907015D
:101130000843A96A1C4A490802EB01416A6A41EA6C
:101140008211084395F82C1040EA01611148001FF4
:10115000016001203866FFF767FA054605E014E0F4
:10116000FFF762FA401B022809D820688001F7D5F2
:101170000BE000BFFFF758FA401B022802D90320FA
:10118000BDE8F88F20688001F4D40020F8E7012042
:10119000F6E70000083802400038024000004742ED
:1011A000800E4742007000400000FFFF70B5040051
:1011B00005D00025A56294F8510010B106E0012089
:1011C00070BD84F85050204600F030F8022084F8BA
:1011D00051002068016821F040010160D4E901015B
:1011E0000843D4E903121143084361690843218B82
:1011F00001F400710843E1690843216A0843A16AC8
:10120000084321680860A069042101EA1040616A6E
:101210000843216848602068C16921F40061C16108
:101220006565012084F85100002070BD00B500689C
:101230000D4987B0884215D10C480021026842F45C
:1012400080520260006800F480500590E020009019
:101250000220CDE901010520CDE9031069460448CB
:10126000FFF7FCF807B000BD0030014044380240F1
:10127000000002404FF0E0210428086903D020F06C
:1012800004000861704740F00400FAE7704710B5A9
:10129000401EB0F1807F01D3012010BD4FF0E0244B
:1012A00060610F21601700F0E1FD0020A0610720C0
:1012B0002061002010BD10B5FFF7E8FF10BD70479A
:1012C000704730B590F83820012A20D0012280F8EC
:1012D0003820022380F8393003685C6824F07004F9
:1012E0005C6003685C680D682C435C6003689C6804
:1012F00024F080049C6003689C6849680C439C60EF
:1013000080F83920002180F83810084630BD0220CE
:1013100030BD10B5040003D094F8390010B107E0D7
:10132000012010BD002084F83800204600F00CF8A1
:10133000022084F83900211D206800F04DFE0120B4
:1013400084F83900002010BD08B501680B48B1F1E0
:10135000804F0BD00A4A914207D1016841F0020147
:101360000160006800F00200009008BD016841F0D3
:1013700001010160006800F00100F5E7403802401B
:10138000000400400168CA6842F00102CA600068B7
:10139000016841F0010101600020704770B504460A
:1013A00090F83800012817D0012584F83850022021
:1013B00084F839002068826822F0770222F47F42A4
:1013C00082600868502837D00DDC202859D005DC11
:1013D00088B3102841D151E0022070BD302853D08D
:1013E00040283AD13FE060282ED070280BD0B0F5CD
:1013F000805F03D0B0F5005F2FD110E020688168D6
:1014000021F0070115E0CB68D1E90121206800F047
:1014100043FE2168886840F0770088601DE0CB6853
:10142000D1E90121206800F037FE2068816841F48D
:101430008041816011E01EE0CA684968206800F0C0
:101440003DFE5021206806E0CA684968206800F027
:1014500046FE6021206800F029FE84F83950002003
:1014600084F8380070BDCA684968206800F026FE1C
:1014700040212068EFE700212068ECE71021206878
:10148000E9E720212068E6E730212068E3E770479C
:1014900070B50446006801694FF00005C94389072B
:1014A00015D4C168C943890711D4E91E016101201F
:1014B0002076206880698007204602D0FFF7E7FF8A
:1014C00004E000F098F8204600F096F825762068B1
:1014D0000169C943490717D4C168C943490713D4EF
:1014E0006FF004010161022020762068806910F409
:1014F000407F204602D0FFF7CAFF04E000F07BF8EF
:10150000204600F079F8257620680169C94309076B
:1015100016D4C168C943090712D46FF008010161EC
:10152000042020762068C0698007204602D0FFF79B
:10153000AEFF04E000F05FF8204600F05DF825768D
:1015400020680169C943C90617D4C168C943C906DF
:1015500013D46FF010010161082020762068C06963
:1015600010F4407F204602D0FFF791FF04E000F026
:1015700042F8204600F040F8257620680169C9430A
:10158000C90708D1C168C943C90704D1891E0161CF
:10159000204600F032F820680169C943090609D4E1
:1015A000C168C943090605D46FF080010161204676
:1015B000FFF785FE20680169C943490609D4C1685F
:1015C000C943490605D46FF040010161204600F08F
:1015D00015F820680169C94389060BD4C168C9435D
:1015E000890607D46FF0200101612046BDE87040F4
:1015F000FFF766BE70BD70477047704770472DE9B2
:10160000F05F06460068884600EB4814D4F80805E9
:101610004FF0040B410708EB88004FF0050A4FF02C
:10162000100706EBC00508D5C4F808B5D4F80C05BA
:1016300040F00200C4F80C0532E0D4F8080580063A
:1016400001D520202AE0D4F808054FF0080900074A
:1016500010D5D4F80C0540F00200C4F80C0585F84C
:101660005DA0C4F80875C4F808954146306801F0DB
:10167000ACFC15E0D4F80805400511D5D4F80C05EC
:1016800040F00200C4F80C054146306801F09DFCB2
:10169000C4F8087585F85D904FF48060C4F80805BB
:1016A000D4F8080580050ED5D4F80C0540F00200EA
:1016B000C4F80C05414604F5A164306801F085FCCE
:1016C0004FF400708DE0D4F808054FF00001C0071A
:1016D0004FF0010236D0306930B1A86CD4F8103523
:1016E000C3F31203C01AE86485F85D20A965C4F845
:1016F000082595F83F0020B1022802D003280ED01B
:1017000019E0D4F80C0540F00200C4F80C0541467D
:1017100004F5A164306801F058FC27600BE0D4F8B0
:10172000000540F00050C4F8000585F85C204146F3
:101730003046FEF7D6FF15F8500F80F001002870F4
:10174000BDE8F09FD4F80805800733D5D4F80C0520
:1017500020F00200C4F80C0595F85D000223012872
:1017600006D0052807D0062808D0082806D018E09B
:1017700085F85C2015E085F85CA012E0A86D421C9D
:10178000AA65032803D9A96585F85CB001E085F84E
:101790005C30D4F8000520F0804040F00040C4F8F0
:1017A0000005C4F8083595F85C2041463046FEF740
:1017B00098FFC5E7D4F80805000614D5D4F80C0541
:1017C00040F00200C4F80C05A86D4146401CA86515
:1017D000062085F85D0004F5A164306801F0F5FB92
:1017E00080202060ACE7D4F80805C006A8D595F89D
:1017F0003F00032809D1D4F80C0540F00200C4F8DA
:101800000C054146306801F0E0FB032085F85D00DF
:10181000C4F8087595F83F0008B1022890D1D4F8B3
:10182000000520F0804040F00040C4F8000587E744
:101830002DE9F047026802EB4114D4F808254FF077
:10184000040C520709D5C4F808C5D4F80C0540F0BB
:101850000200C4F80C05BDE8F087D4F8082501EBB8
:10186000810392064FF0020600EBC30514D5202237
:10187000C4F8082595F83D20012AECD185F85DC013
:10188000D4F80C2542F00202C4F80C25006801F0DF
:101890009CFB85F85C60DEE7D4F808254FF0000378
:1018A00052060FD585F85DC0AB65D4F80C2542F023
:1018B0000202C4F80C25006804F5A16401F085FB60
:1018C000402010E0D4F8082592050ED5D4F80C2558
:1018D00042F00202C4F80C25006804F5A16401F08E
:1018E00074FB4FF400702060B5E7D4F808254FF082
:1018F0000108D20710D0AB65D4F80C2542F00202E3
:10190000C4F80C25006804F5A16401F05EFBC4F87E
:10191000008085F85D809EE7D4F808254FF008091F
:1019200012074FF0050A0DD5C4F80895D4F80C2518
:1019300042F00202C4F80C25006801F046FB85F86D
:101940005DA088E7D4F808254FF01007D20610D51F
:10195000AB65D4F80C2542F00202C4F80C250068EF
:1019600004F5A16401F031FB032085F85D002760D8
:1019700071E7D4F8082512060FD5D4F80C2542F0EB
:101980000202C4F80C25006804F5A16401F01DFBF7
:10199000062085F85D008020A5E7D4F808255205CB
:1019A00011D5D4F80C2542F00202C4F80C250068C9
:1019B00004F5A16401F009FB27604FF4806020600A
:1019C00085F85D9047E7D4F8082592078CD5D4F8C0
:1019D0000C2522F00202C4F80C2595F85D20012A9E
:1019E0000AD0032A26D0042A13D0052A16D0062AA4
:1019F00017D0082A15D01FE085F85C8095F83F20A5
:101A0000022A19D195F8512082F0010285F851205F
:101A100012E085F85C6085F83D300DE085F85CA04B
:101A20000AE0AA6D571CAF65032A03D9AB6585F898
:101A30005CC001E085F85C60C4F8086595F85C203E
:101A4000FEF74FFE07E77CB504680546D4F840046E
:101A50000190D4F8400420F02E00009001988007F7
:101A60000DD50198C00706D0A06920F00051A161F2
:101A70002846FEF7DFFD009840F002000090019834
:101A800000072CD5009840F008000090019840070E
:101A90001AD5A869022803D0E86803280CD00FE003
:101AA0000198C0F341400228286803D0012101F0C9
:101AB000DBFC05E00221FAE74EF66020C4F80404DE
:101AC0002846FEF7B7FD0AE0D4F8400420F02E00C7
:101AD000C4F840042868816941F00051816101988F
:101AE0008006009802D540F020000090C4F8400421
:101AF0007CBD00002DE9F041024600680646016AFF
:101B0000C1F3434301F00F07C1F30A14022B25D19F
:101B1000002C23D007EB870102EBC105696C00297B
:101B20001CD0224601F0BFFC686C20446864E86C5D
:101B30002044E86406EB4710D0F81015084A11421B
:101B40000CD0D0F8001521F0804141F00041C0F8E0
:101B5000001515F8500F80F001002870BDE8F081E5
:101B60000000F81F20B1002201210248FEF757BDF6
:101B70000122F9E7000802402DE9F04F5D4887B0E7
:101B80000024016841F010010160016801F01001BA
:101B90000591016841F004010160016801F0040150
:101BA0000591016841F080010160016801F0800148
:101BB0000591016841F001010160016801F0010136
:101BC0000591016841F002010160016801F0020124
:101BD0000591016841F0080101600068002200F0F1
:101BE0000800059008214448FEF719FDDFF80CB104
:101BF000012211465846FEF712FD4FF2100900224D
:101C000049463F48FEF70BFD082601250096CDE921
:101C10000154694638480394FEF720FC0095CDE94D
:101C20000154694658460394FEF718FC00960226B4
:101C3000CDE901640527CDE9034769465846FEF71B
:101C40000DFC30480095CDE90104DFF8BCA06946E1
:101C50005046FEF703FC10200090CDE901644FF0E0
:101C60000608CDE9034869465046FEF7F7FB042015
:101C7000CDE90004DFF894A0694650460294FEF7CF
:101C8000EDFBA8020090CDE90164CDE90347694668
:101C90005046FEF7E3FBCDF80090CDE901546946CC
:101CA00017480394FEF7DAFB4FF4A4500090CDE9F7
:101CB0000164CDE9034869465846FEF7CFFB202072
:101CC000CDE9000469460E480294FEF7C7FB1048B0
:101CD0000096CDE9010469460748FEF7BFFB0122E3
:101CE00000210620FEF7C4FF0620FEF7B5FF07B06F
:101CF000BDE8F08F3038024000100240000802407A
:101D0000000C0240000011100000024000040240DC
:101D1000000012100B4810B5094901600A494160E2
:101D200000214FF480428160C0E90312416181616A
:101D3000C1610162FEF762FE002800D0FEE710BD1F
:101D4000005400403C000020A08601000E4810B561
:101D50000C4901604FF48271416000218160C160D3
:101D60004FF400720161C0E90512C1610162416274
:101D700081620A21C162FFF719FA002800D0FEE74C
:101D800010BD0000003001409000002010B5134845
:101D900086B04FF08041016048F69F410024C0E9C1
:101DA00001144FF4FA61C0E90314FFF7B2FA00B16D
:101DB000FEE74FF48050009069460848FFF7EEFABE
:101DC00000B1FEE7049404A904480594FFF779FAEA
:101DD000002800D0FEE706B010BD0000E80000209B
:101DE00010B5134886B01149016048F69F410024A0
:101DF000C0E901144FF47A61C0E90314FFF789FACE
:101E000000B1FEE74FF48050009069460848FFF7A4
:101E1000C5FA00B1FEE7049404A905480594FFF74C
:101E200050FA002800D0FEE706B010BD00040040C4
:101E30002401002010B501220649074800F04CFD9E
:101E40000649054800F0ACFFBDE81040024800F02C
:101E5000DCBF0000212E00086001002014000020DB
:101E6000014800F0E9BE0000600100200907090EEA
:101E7000002806DA00F00F0000F1E02080F8141DC1
:101E8000704700F1E02080F8001470470148FEF729
:101E900085BC00002805002010B5FEF759FEBDE8FE
:101EA0001040FFF708BA000030B5244893B0002571
:101EB000016841F080510160006800F0805011908D
:101EC0001F48016841F4804101600068022400F469
:101ED0008040119001200090000401908001CDE924
:101EE0000640042008904820CDE9090403200B9007
:101EF0006846FEF7CDFF00B1FEE70CA90F2081E890
:101F000031004FF480500F90109002210CA8FEF782
:101F1000E1FE00B1FEE7FEF775FF4FF47A71B0FB0A
:101F2000F1F0FFF7B4F90420FFF7A4F900221146FD
:101F3000501EFEF79DFE13B030BD00004038024039
:101F4000007000401048016841F4700101600F48C2
:101F5000016841F0010101600C4A00210832116062
:101F600002680B4B1A400260031D0A4A1A6002689D
:101F700022F48022026005480C30016002495806B4
:101F8000803908607047000088ED00E000380240AA
:101F9000FFFFF6FE1030002410B50548FFF778FA71
:101FA000BDE810404FF400410248FEF734BB00008A
:101FB000E8000020000C024010B50548FFF768FA61
:101FC000BDE810404FF480410248FEF724BB0000FA
:101FD00024010020000C0240F0B50268234B244D80
:101FE000244E254F254C4FF0804C984209D0604537
:101FF00007D0A84205D0B04203D0B84201D0A042D9
:1020000004D122F0700E4A6842EA0E0298421BD0B8
:10201000604519D0A84217D0B04215D0B84213D0AD
:10202000A04211D0164DA8420ED0164DA8420BD09A
:10203000154DA84208D0154DA84205D0144DA84210
:1020400002D0144DA84203D122F44075CA682A4335
:1020500002608A68C2620A688262984201D0A04225
:1020600001D10969016301214161F0BD0000014016
:102070000004004000080040000C00400004014043
:102080000040014000440140004801400018004069
:10209000001C00400020004010B5846842EA032282
:1020A00024F47F440A432243826010BD826822F0F8
:1020B00070020A4342F007018160704710B5036A5D
:1020C000046A24F001040462846924F0F00444EA00
:1020D000021423F00A020A438461026210BD10B5A3
:1020E000036A23F0100303628369046A23F47043D4
:1020F00043EA023224F0A00343EA01118261016243
:1021000010BD10B500224FF6FF7300EB8204B4F847
:102110007C43240409D49A4205D000EB820041F4A8
:102120000041C0F87C13D0B210BD521CD2B20B2AB1
:10213000EBD31A46F7E77FB51C46012501AE002315
:10214000009586E80E0002232A46214600F0DEFCB8
:1021500004B0002070BD7FB51D4690F81D33089C6B
:1021600003B100240123CDE90031CDE9022402238B
:102170000022294600F0CAFC04B0002070BD70B5F2
:102180000446D0F87403C16920464031FEF73AF99D
:10219000050004D1D4F8C4230221204690472846E4
:1021A00070BD70B50546D0F874030026C469217867
:1021B00039B1284600F01FF92178284600F0A0F92F
:1021C0002670217B39B1284600F015F9217B28467D
:1021D00000F096F92673617B39B1284600F00BF9BF
:1021E000617B284600F08CF96673D5F87403C069EA
:1021F00020B101F011FAD5F87403C661002070BD5A
:10220000FEB50227054601233A46394600F056F945
:102210000646FF287ED00146284600F0CFFD50201C
:1022200001F050FAD5F874130446C86106EB860035
:1022300000EBC60005EB400090F848130A0603D5F2
:102240006170B0F84A03608161782846FFF759FF52
:102250002070014695F81D03638903228DE80D0067
:1022600095F81C336278284600F068FC217800223B
:10227000284600F01BFC00231A460A21284600F0DD
:102280001DF9FF2854D000EB800101EBC00005EBE5
:10229000400090F848130A0604D5E173B0F84A13D9
:1022A000618303E0A173B0F84A13218390F85013BF
:1022B0000A0604D5E173B0F85203608303E0A1730A
:1022C000B0F852032083A17B2846FFF71AFF607302
:1022D000E17B2846FFF715FF2073208B95F81D132F
:1022E00002260091CDE9016095F81C33A27B617B49
:1022F000284600F023FC608B95F81D130091CDE972
:10230000016095F81C33E27B217B284600F016FC27
:10231000002000E00CE084F84C000246617B284677
:1023200000F0C4FB217B0022284600F0BFFB002701
:102330003846FEBD70472DE9F0410546D0F87403DC
:1023400001270026C4694FF0040894F84C000528C2
:102350004AD2DFE800F00305163B4200002743E0C5
:102360002122A16C2A7420226A746E82AE82072216
:102370002846EA8200F062F848B9022084F84C004E
:1023800032E004F140012846FEF73CF820B1012874
:102390002AD084F84C8027E084F84C60A06C94F834
:1023A0004410027991421FD194F8461082799142EB
:1023B0001AD194F845104279914215D1216C0068E8
:1023C000814211D12846FFF7B5FF0DE02846FDF701
:1023D0009FFF2846FDF768FF06E00021284600F031
:1023E0000FF808B984F84C603846BDE8F0817047B2
:1023F00000207047704710B500F086FA002010BD2D
:102400008278012A07D1022202740122427400223A
:1024100042828182C2820022114600F00FB87FB54D
:102420001C46012501AE0023009586E80E002A46D1
:10243000214600F06BFB04B0002070BD70B504466F
:102440000120A3780546012B09D0022B06D1204696
:1024500000F00AF948B1022800D1A57070BDA16052
:10246000A28125760221A17070BDA5700021217680
:1024700070BD7FB51D4690F81D33089C03B1002444
:102480000123CDE90031CDE9022400231A46294673
:1024900000F03CFB04B0002070BD1FB500231446C3
:1024A000CDE900310822CDE902231A46214600F089
:1024B0002DFB04B0002010BDFDF7B0BF70B50024A7
:1024C00000F2323004EB840505EBC40500EB450552
:1024D000EE7B0A358E4201D0FF2909D1AE799642B2
:1024E00001D0FF2A04D1ED799D4207D0FF2B05D002
:1024F000641C64B2022CE5DBFF2070BDE0B270BD4D
:102500000B2907D200EB8100B0F87C13C1F30E0158
:10251000C0F87C130020704730B48578029C012DF0
:102520000FD141F0800101740621417403214282E0
:10253000B1EB122F02D140F2094100E0002181826B
:10254000C482224630BC1946FFF778BF0A88037858
:102550001A440A80017808447047F8B50E4600F125
:102560001C05009104462B464FF400720021FFF732
:10257000D3FF070005D13246294604F2323000F07D
:10258000E7FA3846F8BD38B50D460091044600F527
:102590008E734FF480720021FFF7BEFF01003DD122
:1025A00004F5487094F81C21027094F81D214270C3
:1025B00094F81E2194F81F31082D02EB032242806B
:1025C00094F82021027194F82121427194F822217B
:1025D000827194F82321C27120D994F8242194F8AF
:1025E000253102EB0322028194F8262194F8273149
:1025F00002EB0322428194F8282194F8293102EB5E
:102600000322828194F82A21827394F82B21C273C9
:1026100094F82C21027494F82D214274084638BD98
:10262000F8B51C461646009341F4407200F58E73CF
:102630001D460021FFF770FF002814D16978032997
:1026400011D129788A1EA24200DC14460021A2B2D0
:10265000AD1C04E06B5C891C06F8013B89B2914219
:10266000F8D300213170F8BD2DE9F84F044601255B
:10267000007E0B262F464FF009084FF007094FF058
:10268000050B4FF00D0A0C281ED2DFE800F0A9065A
:102690000E212C38445C67788495627904F110012E
:1026A0002046FFF7FAFE02200DE06179204600F097
:1026B0008DF9012877D1207CE18A00F0800021B1DA
:1026C00080283BD1032020768AE0802814D02FE098
:1026D000D4F8B803E0812379A2892046A168FFF7E6
:1026E0009EFE0420EFE72179204600F06FF90128D3
:1026F00002D0052841D056E084F8188070E0009799
:102700006379A2892046A168FFF7B3FED4F8B80325
:10271000E0810620D7E76179204600F057F90128CB
:1027200006D0052807D0022808D0042809D057E091
:1027300084F8189054E00C2020761EE084F818B03D
:102740004EE026764BE00022237911462046FFF723
:1027500066FED4F8B803E0810820B4E7217920466A
:1027600000F034F9012804D0042823D0052804D02F
:1027700036E084F818A0002532E0032530E0009709
:102780000022637911462046FFF773FED4F8B803A0
:10279000E0810A2097E76179204600F017F90128C7
:1027A00004D00228A8D0042804D019E0002584F819
:1027B00018A015E0267613E0607E401CC0B260765B
:1027C000022805D8204600F091F92776A77007E087
:1027D000D4F8C423062120469047002060760225C5
:1027E0002846BDE8F88FFEB504460126407800254E
:1027F000374604F58E7208286CD2DFE800F0041624
:102800001D434A53576208212046FFF7BCFE0028AB
:1028100060D194F82703A071677094F81D1300919C
:10282000CDE9015094F81C3319E012212046FFF73E
:10283000AAFE30BB022033E00121204600F0C9FA95
:10284000F8B90220FFF738FE84F81C73032060708B
:10285000A07994F81D13CDE900153B46029021792B
:102860008022204600F06AF9A07994F81D130091A7
:10287000CDE9015094F81C3361790022204600F024
:102880005DF927E009212046FFF767FE10BB042011
:1028900006E0B4F834132046FFF75FFED0B90520F8
:1028A000607017E094F82E13062502E094F82F13B9
:1028B000072521B1FF232046FFF7B2FE50B965700E
:1028C00008E094F8301321B1FF232046FFF7A8FE5B
:1028D00000B900263046FEBD70B50D46040011D08B
:1028E00084F8BC230020C4F87403C4F8780320469D
:1028F000FDF748FD0DB1C4F8C453204600F07AF846
:10290000002070BD022070BD10B50024D0F8C003B7
:10291000FDF7ABFE30B1012801D0022801D002241E
:1029200000E00124204610BD10B5017819B10178EE
:10293000012909D00AE0012180F81E13D0F8C42330
:1029400022B10421904701E002210170002010BD56
:1029500010B5044600F0CAF821792046FFF7D0FDF3
:1029600061792046FFF7CCFD002084F81E03D4F8DF
:10297000C42312B1052120469047204600F0A6F856
:1029800003202070002010BD10B590F8BC03012872
:1029900002D10846FFF7E6F8C820FDF73FFD00200A
:1029A00010BDD0F8C003FDF75ABE10B50124D0F811
:1029B000C003FDF74AFE20B1012805D0022803D14B
:1029C00001E0002400E00224204610BDD0F8C0033E
:1029D000FDF73EBED0F8B813491CC0F8B813017813
:1029E0000A2905D1D0F87413002901D08969084754
:1029F0007047000010B5044690F8BC0301281ED1B2
:102A000010484FF0A0410022C0F89442C4F8C0031F
:102A10000160082181600321C0E903120221C0E99D
:102A20000612FDF752FF18B1E22107A000F0E4FD05
:102A30000448FDF707FE0146204600F034F8002068
:102A400010BD0000280500202E2E2F5372632F7515
:102A50007362685F636F6E662E630000FEB508AC3C
:102A600094E8E0008DE8E0000024D0F8C003FDF712
:102A70000EFE30B1012801D0022801D0022400E06E
:102A800001242046FEBD10B50024D0F8C003FDF798
:102A900085FF30B1012801D0022801D0022400E0D6
:102AA0000124204610BDC0F8B8137047D0F8C00309
:102AB00001EB810100EBC10090F83B1011B180F8EF
:102AC000502001E080F851200020704710B500240C
:102AD000D0F8C003FDF769FF30B1012801D002280A
:102AE00001D0022400E00124204610BD10B50024CE
:102AF000D0F8C003FDF76FFF30B1012801D00228E4
:102B000001D0022400E00124204610BD2DE9FF4140
:102B10000AAC94E8E0108DE8E0100024D0F8C0037F
:102B2000FDF7E0FD30B1012801D0022801D00224D8
:102B300000E0012404B02046BDE8F081FEB508AFF6
:102B400097E870008DE87000FFF788FF0020FEBD59
:102B50002DE9F84105460B782B704B786B708B781C
:102B6000CC78084603EB04236B800B792B714B79EF
:102B70006B718B79AB71CB79EB710027017A29727C
:102B8000092A57D90921ADF800104EE06946FFF730
:102B9000DDFC4178042946D107EB870101EBC70131
:102BA00005EB4108017888F80A10417888F80B1085
:102BB000817888F80C10C17888F80D10017988F8B0
:102BC0000E10417988F80F10817988F81010C179BA
:102BD00008F10A0488F81110017A2172002618E021
:102BE0006946FFF7B3FC4178052912D108EBC6010D
:102BF00002780A7542784A7582788A75C278CA75F1
:102C000002794379761C02EB03220A8382798A7661
:102C100076B22179B14204DD6988BDF80020914285
:102C2000DED87F1C7FB2022F04DA6A88BDF800105C
:102C30008A42ABD8BDE8F881FEB5044602208DF883
:102C400000002178002008270C2605460B2913D206
:102C5000DFE801F006A41399A4428250575F920066
:102C600094F81E03002807D001202070C820FFF729
:102C700023FC2046FFF707FF90E06420FFF71CFCD1
:102C80002046FFF792FE84F81D03052020700021E6
:102C90002046FFF736FA607180212046FFF731FAAF
:102CA00020710146A07994F81D230092CDE90150CE
:102CB00094F81C3380222046FFF740FFA07994F857
:102CC0001D130091CDE9015094F81C336179002265
:102CD0002046FFF733FF61E02046FFF784FDD0BBBD
:102CE00084F81F5394F83103012801D007203FE0F6
:102CF000277053E0D4F8C4236AB3012120469047DB
:102D0000F6E794F83713204600F071F818BB092055
:102D10002EE0D4F87813F1B1C4F8745394F8412339
:102D200004EB8001D1F870130B79934201D1C4F800
:102D30007413401C10F0FF00F2D0D4F87403C8B133
:102D4000816820468847A8B906202070D4F8C4239B
:102D500003212046904721E0D4F8740350B1016963
:102D6000204688478DF800009DF80000B0B90A2081
:102D7000207013E0267011E0D4F8740370B141693B
:102D8000204688470AE02046FDF7FCFAD4F8740391
:102D900020B1C16820468847C4F874530020FEBDA6
:102DA000002211B1D0F8783313B1022210467047D7
:102DB0000123C0F87833C0F87013F7E7024600200B
:102DC00092F836338B4202D982F81F1370470220E3
:102DD00070478278012A06D10022027405234374C9
:102DE00041828282C28200221146FFF727BB82788D
:102DF000012A06D10022027409234374418282828F
:102E0000C28200221146FFF719BB10B50446FFF736
:102E10005DFE01212046FFF7B7FD002010BD000038
:102E200001290AD00548022906D0042903D0052922
:102E300003D1032100E00121017070470000002050
:102E400070B50446049D06990D9801290CD0E068E0
:102E500040F04000E060204600F028F84FF4803059
:102E6000A063012D16D01DE0A16B21F48031A16378
:102E7000E1680D4A1140E160E16821F44011E16030
:102E8000012803D1E06840F48010E060204600F0A3
:102E90000DF8E6E7A06840F00600A060A06840F0EA
:102EA0002000A060002070BDBFFFBDFF01220C49C3
:102EB00002E0521C8A420BD80369002BF9DA02693E
:102EC00042F001020261012204E0521C8A4201D94F
:102ED000032070470369DB07F7D10020704700002B
:102EE000400D0300816821F00101816000207047DE
:102EF00030B50246012400230C4800EAC44040F0EB
:102F0000004502F5A06000EB4110056102F5A060EC
:102F100000EB4110036823F0804343F0004302F5C7
:102F2000A06000EB41100360002030BD0000F81FDE
:102F300008B5D0F8402422F02E020092D20405D425
:102F4000012909D1009941F4805103E021B9009988
:102F500021F48051C0F84014002008BD816841F080
:102F60000101816000207047002110220261054AA2
:102F7000491C914201D9032070470369DB06F7D44D
:102F800000207047400D03000022202343EA8111F6
:102F900001610549521C8A4201D903207047036927
:102FA0009B06F7D400207047400D0300D0F80804BA
:102FB00080B2704708B5D0F840040090C0F341409B
:102FC00008BD406900F00100704710B502460023BB
:102FD00002F5A06000EB41100068C0F3814040B1F1
:102FE00002F5A06000EB41100068C0F381400228A8
:102FF00046D102F5A06000EB4110006840F080442B
:1030000002F5A06000EB41100460D06A00F47F007C
:1030100048BB02F5A06000EB4110006820F00044BE
:1030200002F5A06000EB4110046002F5A06000EB27
:103030004110006840F0004402F5A06000EB411030
:10304000046000BF581C0346B0F57A7F00D909E040
:1030500002F5A06000EB4110006800F00040B0F104
:10306000004FEFD053E002F5A06000EB4110006884
:1030700040F0004402F5A06000EB4110046046E01F
:1030800002F5A06000EB4110006840F0804402F5BA
:10309000A06000EB411004604FF48260805880B261
:1030A00048BB02F5A06000EB4110006820F000442E
:1030B00002F5A06000EB4110046002F5A06000EB97
:1030C0004110006840F0004402F5A06000EB4110A0
:1030D000046000BF581C0346B0F57A7F00D909E0B0
:1030E00002F5A06000EB4110006800F00040B0F174
:1030F000004FEFD00BE002F5A06000EB411000683C
:1031000040F0004402F5A06000EB41100460002094
:1031100010BD0000F0B5DDE906564FF0FF3C00EBB6
:103120004114059FC4F808C535B1012D21D0022DE9
:1031300002D0032D2AD114E040F29D4CC4F80CC5F6
:103140005FEA026C05D500BFD4F80CC54CF4807C56
:103150001AE0B0F1A04F19D0D4F80CC54CF0600CB7
:1031600012E040F29D6CC4F80CC55FEA026CEBD42F
:103170000CE040F2252CC4F80CC55FEA026C05D5C2
:10318000D4F80CC54CF4C07CC4F80CC5D0F818C4F5
:103190004FF0010E0EFA01FE4CEA0E0CC0F818C4F6
:1031A000816941F0007181614FF0FE5000EA835067
:1031B0004FF4F04101EAC22108434FF4004101EA13
:1031C00002210843022F10D05FF0000140EA414085
:1031D0004FF4402101EA85410843C6F30A01084340
:1031E000C4F80005032D02D007E00121EEE7D4F872
:1031F000000540F00050C4F800050020F0BD014675
:1032000040F21440405880B2704700002DE9F84F5A
:1032100005460C4616464FF0000BDA4600274FF4E1
:103220008078B946B5F1A04F1CD02079D0B94EB9FD
:103230006079012806D161782846FFF759FE002001
:10324000BDE8F88F012E0DD1607805F5A06101EB86
:103250004010C06820F06002607801EB4010C2604E
:1032600000206071206968B1218920690844401EEE
:10327000B0FBF1F087B2474505DD4746208978432A
:10328000206100E00127E07810B1208978432061B7
:103290002069C0F312003E4901EAC7410843A17A00
:1032A0004FF0C04202EA41710843617805F5A0621F
:1032B00002EB4111086136B1607805F5A06101EBC0
:1032C0004010E26842614FF48160405900F0010013
:1032D00080F0010B607805F5A06101EB40100068FB
:1032E00020F00052607801EB40100260607801EB42
:1032F0004010006840EA4B72607801EB40100260B9
:10330000607801EB4010D0F8009029F0804949F036
:103310000049607801EB4010C0F80090AEBBE07847
:1033200098BB206988B3E07930B1012813D0022816
:1033300003D003281ED10DE000BF2069C01CC0F3DC
:103340008F0AE86A80B2504503D2A86940F0200095
:10335000A86110E000BF2069C01CC0F38F0A4FF4C1
:103360008260405980B2504503D2A86940F0806025
:10337000A86100E000BF00BF00200090208A83B257
:1033800062782846E16800F023F9002058E7000041
:103390000000F81F2DE9F047174604460025DDF828
:1033A0002090C0F8005E806B20F48020A063A06BAA
:1033B00020F40020A063A06B40F40010A0634FF045
:1033C000A048032B06D1444504D0D4F8000440F0B3
:1033D000040003E0D4F8000420F00400C4F8000462
:1033E00010212046FFF7D0FD2046FFF7BDFD00204D
:1033F000461E06E004EB4011C1F80865C1F80C5503
:10340000401C8742F6D801212046FFF791FDC820D5
:10341000FDF704F8A5616661444505D1802060622E
:103420000C48A0620C4805E04FF4007060620B4845
:10343000A0620B48C4F80001B9F1000F03D1A069E4
:1034400040F01000A061A06906490843A061002077
:10345000BDE8F08780006000E0004000000200014D
:103460000003E000080020A3D0F8002422F00302AB
:10347000C0F80024D0F8002401F003031A43C0F878
:103480000024012902D0022903D006E04BF6803146
:1034900001E041F27071C0F80414002070474169E6
:1034A00080690840704710B503460020D21C92087E
:1034B00003F5805303E01C6841F8044B401C904224
:1034C000F9D3084610BD38B50446D0F8400420F0C2
:1034D0002E00009040F48070C4F840040A2004F5E7
:1034E0008864FCF79BFF009820F480702060002027
:1034F00038BD10B5C26822F0C042C260012901D0B7
:1035000021B107E0C16841F0005102E0C16841F01B
:103510008041C1603220FCF781FF002010BDF0B572
:1035200005460027A86820F00100A8601021284661
:10353000FFF72AFD2846FFF717FD002411E005F5E7
:10354000A06000EB4410066846F0804626F0004676
:1035500026F4004605F5A06000EB44100660601CF0
:10356000C4B20F2CEBDD002423E005F5A06000EBD6
:103570004410066846F0804646F0004626F40046B1
:1035800005F5A06000EB4410066000BF781C0746FC
:10359000B0F57A7F00D909E005F5A06000EB441092
:1035A000006800F00040B0F1004FEFD000BF601C99
:1035B000C4B20F2CD9DD4FF0FF3140F2144041511D
:1035C00008466861A86840F00100A8600020F0BDCE
:1035D00030B50024039D6DB9DB1C9B0800EB023065
:1035E00000F5805004E000BF51F8042B0260641C19
:1035F0009C42F9D3002030BDFEE702E008C8121F4C
:1036000008C1002AFAD170477047002001E001C1CB
:10361000121F002AFBD1704710B5002821D0114B92
:103620000022001F196803E0814203D80A46496856
:103630000029F9D152B11368841A9C4204D1006860
:1036400018441060104602E0506000E0186039B184
:1036500002680B1A934203D10B681A44026049684E
:10366000416010BD34000020FDF77AFAFEF71CFC23
:10367000FEF782FAFEF74EFBFEF768FBFEF7DAFB79
:10368000FEF784FBFEF7ACFB002211461C20FDF781
:10369000EFFA1C20FDF7E0FA002211461D20FDF78D
:1036A000E7FA1D20FDF7D8FA0548FDF76BFE044840
:1036B0003C30FDF767FE00BFFEF7D2FBFCE70000E1
:1036C000E8000020F0B50B30154D20F00701002474
:1036D000144A0FE003688B420BD38B4205D95E1A64
:1036E00043184768C3E9006700E04368136002C0FD
:1036F00004E0021D10680028ECD12046002802D109
:10370000286808B10020F0BD064A07481060074A43
:10371000121A22F00702C0E9002401202860D7E72E
:103720003800002034000020C4070020C009002019
:103730000000000000000000010203040607080961
:103740000000000001020304434443006C370008FA
:10375000000000203C000000FA350008A8370008EF
:103760003C000020840D00000A3600080000000024
:103770000100000010000000000000000024F40020
:10378000483700080200000001220008A3210008B9
:103790007F21000837230008F12300080000000003
:0837A000000000000000000021
:040000050800018965
:00000001FF
