:100000000C942A000C9434000C9434000C943400AA
:100010000C9434000C9434000C9434000C94340090
:100020000C9434000C9434000C9434000C94340080
:100030000C9434000C9434000C9434000C94340070
:100040000C9434000C9434000C9434000C94340060
:100050000C94340011241FBECFE5D4E0DEBFCDBF29
:100060000E943B000C9452000C94000083B78966F8
:1000700083BFA09A08950E94360080E08CBFEFE312
:10008000FCE93197F1F700C000008F5F8F3FB1F7B7
:100090008CBFEFE3FCE93197F1F700C0000081501D
:0800A000B9F7EBCFF894FFCF94
:00000001FF
